:1000000062C07CC009C37AC079C078C077C076C0AE
:1000100075C074C073C072C071C070C06FC005017C
:100020000906A101050719E029E715002501750159
:1000300095088102950175088103950575010508EC
:10004000190129059102950175039103950675081B
:10005000150025650507190029658100C0090222E0
:1000600000010100803209040000010300000009C2
:100070002101010001223F000705810308000A1247
:1000800001100100000008C016DB2700010102007A
:10009000012003530079007300740065006D002097
:1000A000004B006500790062006F0061007200641F
:1000B000001003470065006E006500720069006370
:1000C00000040309040011241FBECFE5D2E0DEBF07
:1000D000CDBF10E0A0E6B0E0EEE2FBE002C005908C
:1000E0000D92A437B107D9F720E0A4E7B0E001C032
:1000F0001D92AB3BB207E1F72FD417C581CFF8941F
:1001000088B3877E88BBBB9A27EA86E99CE02150AA
:1001100080409040E1F700C00000BB9846D2789440
:10012000089509D18091900084FFFBCF68E08AE7B1
:1001300090E0DFC0DC0181E0809377008C918076D5
:10014000803229F51196EC911197E150EF30F8F4D7
:10015000F0E0E455FF4F099424C00DC01AC017C049
:1001600016C015C014C013C024C00DC015C00FC0E8
:100170000EC032C045C080E690E09093A00080930E
:100180009F0081E0089513968C918093600080E039
:10019000089586E790E0F1CF13968C9180937600D6
:1001A000F6CF8AE790E09093A00080939F0088E0CC
:1001B000089513968C91823059F1833041F7109253
:1001C00083001092820088E78093840061E070E0F1
:1001D00082E890E0B1D3DBCF1092830010928200CE
:1001E00088E78093840061E070E082E890E0A4D327
:1001F00081E690E09093A00080939F0080E10895B5
:1002000088E7809383001092820010928400DECFF2
:100210008FEF0895FC0180818093750081E008953F
:10022000DF92EF92FF920F931F93CF93DF9308E03B
:1002300010E0C0E0D0E8DD2EDC0ED1BEDAD17C01CA
:1002400084E3E81689E0F8060CF4CD2DD69501502C
:10025000110989F78FEF8C0F81BF0C2F10E00F5F12
:100260001F4F81B78017110651F04CF0C1BFDF91CD
:10027000CF911F910F91FF90EF90DF900895B9D12A
:100280008453994097FF03C09195819591098E15EC
:100290009F0514F4C1B77C0181B78F5F81BFE1CFA7
:1002A000EAE7F0E080831182628313821482158270
:1002B0001682178236CFCF92DF92EF92FF926B01B8
:1002C0007C0191E0C91AD108E108F1088FEFC81646
:1002D000D806E806F80629F4FF90EF90DF90CF905B
:1002E000089529D08CE190E10197F1F700C000005A
:1002F000E8CFCF93C62F2091900024FF18C0209103
:10030000910038E82327209391002C2FFC01A2E9CB
:10031000B0E081918D9321501216DCF36C2F82E9AD
:1003200090E063D1CC5FC0939000CF9108952AE50F
:1003300020939000EACFCF93DF936091A1006350A8
:1003400067FDB0C080919E00CCE0D0E0C81BD10911
:10035000CB55DF4F80919D008D3209F007C1683089
:1003600009F09EC083EC809385008AE5809372003B
:10037000109279008881807671F0CE01DBDE8F3FAC
:1003800009F486C09F81911189C09E81981708F059
:1003900085C0892F83C02A8110928E009981911186
:1003A0000AC010928F002EE830E082E03093A00067
:1003B00020939F00E7CF953029F42093A2002EE8E8
:1003C00030E0F4CF963009F04CC09B81913059F465
:1003D0008FE790E09093A00080939F0082E190E4EB
:1003E00090937900CFCF923041F48DE590E09093D7
:1003F000A00080939F0082E2F2CF9330F1F42111AC
:1004000008C081EC90E09093A00080939F0084E06E
:10041000E6CF213041F481EB90E09093A0008093EF
:100420009F0080E1DCCF2230D1F681E990E090930B
:10043000A00080939F0080E2D2CF913241F48FE6FA
:1004400090E09093A00080939F0089E0C8CF923203
:1004500031F68EE190E09093A00080939F008FE3AF
:10046000BECF983071F0993019F42093A400A7CF33
:100470009A3059F09B3009F0A2CF9BE49093910001
:100480009ECF24EA30E081E091CF2EE830E0FBCF30
:10049000988197FD8E8190E8909379008093710008
:1004A0001092A1008091720084FF45C0809171007C
:1004B0008F3F09F440C0C82F893008F0C8E0982F5A
:1004C0009C1B909371009091850028E8922790934F
:1004D0008500882321F120919F003091A000809118
:1004E0007900A9014558504086FF52C0A5E8B0E008
:1004F0009C2FFA01EA0FFB1FE4911196EC931197E0
:10050000915011969111F5CF2F5F3F4F8FEF8C0FC8
:10051000820F932F911D9093A00080939F006C2FCA
:1005200086E890E062D0CC5FCC3019F08FEF8093FA
:100530007100C093720084E196B3987131F48150D8
:10054000D9F71092A20010929C00C1E08111C0E086
:1005500090917800C91739F0882319F0F89460DE7B
:100560007894C0937800DF91CF91089580917900BD
:1005700087FF96CFCE014EDE8F3F21F48EE1809330
:1005800072008ECF882309F48BCF1092710088CF30
:10059000E5E8F0E09C2FDA01AE0FBF1F8C9181835C
:1005A000915031969111F7CFAFCFAC9A8BB7806253
:1005B0008BBFE0E9F0E08BE481838AE580830895D6
:1005C000A82FB92F80E090E041E050EA609530E03C
:1005D00009C02D9182279795879510F0842795273C
:1005E000305EC8F36F5FA8F30895EADF8D939D93A3
:1005F0000895A6E088279927AA9569F00197E1F365
:10060000B399FCCFB39BFECF81E09927A6B30196A7
:1006100011F0A871D9F70895CF93CFB7CF93C395B1
:10062000B39BE9F7B39B0BC0B39B09C0B39B07C057
:10063000B39B05C0B39B03C0B39B01C0D5C00F9251
:10064000DF93C0919E00DD27CB55DF4F012EB39B7A
:1006500003C0DF910F90E6CF2F930F931F934F931B
:100660002FEF4F6F06B303FB20F95F933F9350E0EA
:100670003BE065C016B30126502953FDC89556B31B
:10068000012703FB25F92F7306B3B1F0502710277C
:1006900013FB26F906B22230F0F000C016B3012792
:1006A00003FB27F90126502906B22430E8F54F77DD
:1006B000206816B30000F6CF50274F7D206206B2A7
:1006C000102F000000C006B300265029102713FB8E
:1006D00026F906B2E2CF4F7B06B3206400C0DACF22
:1006E00001265029187106B269F14E7F2160012F51
:1006F00016B328C0002650294D7F06B22260102F65
:1007000029C0012650294B7F06B22460012F2DC03D
:1007100016B301265029477F2860000006B22EC07C
:100720004F7E06B3206130C0422706B349930026AE
:100730005029102706B24FEF13FB20F9297F16B37B
:1007400079F2187159F10126502906B2012703FBED
:1007500021F9237F06B371F2002650293150D0F0E1
:1007600006B2102713FB22F9277E16B351F2012699
:100770005029012703FB06B223F92F7C49F2000020
:1007800006B3102713FB24F90026502906B22F794F
:1007900039F270CF10E21ABF002719C03B503195D3
:1007A000C31BD04010E21ABF0881033C09F10B348F
:1007B000F9F020919C001981110F1213EDCF4A819D
:1007C000441F093651F10D3211F0013E29F7009313
:1007D000A3003F915F914F911F910F912F91DF9156
:1007E0000F90CAB7C5FD1BCFCF91CFBFCF91189542
:1007F0002091A300222369F31091A100112379F520
:1008000034307AF13093A10020939D0010919E0026
:100810003BE0311B30939E0024C00091A1000130C9
:10082000F4F40AE54F7049F43091720034FD1AC0B7
:1008300000937200C5E8D0E019C03091900034FDFB
:1008400011C000939000C1E9D0E010C0052710E06E
:1008500000C021C0052710E0C89508BB14C03AE5C8
:1008600001C032ED032EC0E0D0E032E017B31861D2
:10087000C39A08B317BB58E120E84FEF20FF0527C4
:1008800008BB279517951C3F28F700004552B0F785
:1008900020FF0527279508BB17951C3FB8F629911F
:1008A0003A9561F7077E1091A200110F08BBC25064
:1008B000D04011F010939C0010E21ABF086017B3EB
:1008C000177E402F477E54E05A95F1F708BB17BBBF
:1008D00048BB7FCF27B3242B27BB38B3242F2095C9
:1008E000232338B3432B3FB7F894FC01680F791FDB
:1008F000E617F70711F43FBF0895819198E048BBD0
:10090000000000C087FF28BB880F00C000C000C0E7
:1009100000C028BB00C09A9591F7EACF9C01CB019B
:1009200063E070E0CFD0BC01C901D4DF85ED94E075
:100930000197F1F70000089544E0F0CF660F771FAC
:10094000660F771F44E0C6DF85ED94E00197F1F76D
:100950000000089544E0BECF88E7809383001092A2
:1009600082001092840061E070E082E890E0E4DFB1
:10097000C6DBD0E0C0E0C12CD12C7601C394DBDC17
:10098000CE01B1D0883E08F495C08E010F5F1F4F95
:10099000885E8B30A0F4E82FF0E0E053FB4F099421
:1009A00019C009C013C01BC020C024C02CC033C054
:1009B0003EC051C064C0C8019ED07DDC2496219603
:1009C000C11582E0D807D8F2B6DCFECF8091750061
:1009D00080FF09C0C80194D0EC012197F0CF80912D
:1009E000750081FDF7CF2296EACF8091750082FFD6
:1009F000FACFF0CFC80177D090917400892B809303
:100A00007400E801DCCFC8016ED0982F90958091DA
:100A100074008923F4CFC80166D090917400682FC8
:100A2000892F82603DDC60E080E03ADCEACFC801DB
:100A30005AD0982F92959F70B701A60104C0440F19
:100A4000551F661F771F9A95D2F780FF2BC087B37B
:100A5000482B47BBE8012196CE0145D0982F9295AF
:100A60009F70B701A60104C0440F551F661F771F72
:100A70009A95D2F780FF1AC088B3482B48BBCE01A5
:100A8000019631D046B3239650E070E060E004C098
:100A900076956795579547958A95D2F740FF8FCF02
:100AA000CE0199CF87B340954823D3CF88B34095E3
:100AB0004823E4CF682F80917400F2DB60E080E08F
:100AC000EFDB7DCF0024552704C0080E591F880F87
:100AD000991F009729F076956795B8F37105B9F7D6
:100AE000802D952F0895E199FECF9FBB8EBBE09A94
:100AF00099278DB30895A6E1B0E044E050E007C027
:100B0000A8E1B0E042E050E002C0DC01CB01FC0112
:100B1000E199FECF06C0FFBBEEBBE09A31960DB265
:0E0B20000D9241505040B8F70895F894FFCF61
:100B2E007D5245504C59205445535400000000004E
:040B3E0000FF5A005A
:00000001FF
