:100000000EC028C027C026C025C024C023C022C0DF
:1000100021C020C01FC01EC01DC01CC01BC0112499
:100020001FBECFE5D1E0DEBFCDBF10E0A0E6B0E05F
:10003000ECE6F1E002C005900D92AE37B107D9F7BA
:1000400020E0AEE7B0E001C01D92A138B207E1F7B1
:1000500002D08AC0D5CF88E780937F0010927E00BF
:100060001092800061E070E08EE790E04DD000E6F5
:1000700010E0D0E0C0E0F80161918F01CE0166D0C0
:100080002196CD31D105B9F710927F0088E7809392
:100090007E001092800061E070E08EE790E034D046
:1000A000FFCF27B3242B27BB38B3242F209523233E
:1000B00038B3432B3FB7F894FC01680F791FE6175C
:1000C000F70711F43FBF0895819198E048BB000005
:1000D00000C087FF28BB880F000000C000C000C020
:1000E00028BB00C09A9591F7EACF9C01CB0163E051
:1000F00070E01BD0BC01C901D4DF8FEA94E0019706
:10010000F1F700C00000089541E0EFCF660F771FC0
:10011000660F771F41E0C5DF8FEA94E00197F1F7A2
:1001200000C00000089541E0BCCF0024552704C062
:10013000080E591F880F991F009729F0769567952B
:10014000B8F37105B9F7802D952F0895262FE19901
:10015000FECF1CBA1FBA8EBB2DBB0FB6F894E29A25
:0C016000E19A0FBE01960895F894FFCFBD
:10016C00E9E80300000405060708090AEF04EF0597
:0E017C00EF06EF07EF08EF09EF0AE8000000BA
:00000001FF
